:020000040800F2
:100000002809002099010008D71C0008471B000898
:10001000D51C0008AF060008852700080000000076
:10002000000000000000000000000000E9240008BB
:10003000C907000800000000B123000817250008C8
:10004000B3010008B3010008B3010008B3010008C0
:10005000B3010008B3010008B3010008B3010008B0
:10006000B3010008B3010008B3010008B3010008A0
:10007000B3010008B3010008B3010008B301000890
:10008000B3010008B3010008B3010008B301000880
:10009000B3010008B3010008B3010008B301000870
:1000A000B3010008B3010008B3010008B301000860
:1000B000B3010008B3010008B3010008B301000850
:1000C000B3010008B3010008B3010008B301000840
:1000D000B3010008B3010008B3010008B301000830
:1000E000B3010008B3010008B301000800F002F8F2
:1000F00000F042F80AA090E8000C82448344AAF180
:100100000107DA4501D100F037F8AFF2090EBAE87D
:100110000F0013F0010F18BFFB1A43F0010318473B
:100120000038000020380000103A24BF78C878C199
:10013000FAD8520724BF30C830C144BF04680C60ED
:10014000704700000023002400250026103A28BF35
:1001500078C1FBD8520728BF30C148BF0B60704739
:10016000642900F07580782900F0AE800020704787
:100170001FB51FBD10B510BD00F05FFA1146FFF7A7
:10018000F7FF02F037FB00F07DFA03B4FFF7F2FF50
:1001900003BC00F085FA0000094880470948004781
:1001A000FEE7FEE7FEE7FEE7FEE7FEE7FEE7FEE727
:1001B000FEE7FEE704480549054A064B7047000084
:1001C00079250008ED0000082803002028090020F8
:1001D00028050020280500200FB41CB5074B06AAEF
:1001E0007B4469460090059800F00FFA00206946AC
:1001F00000F01EFA1CBC5DF814FB00004D0400006A
:1002000070B5044685690068C10601D5302600E056
:100210002026C00707D070BDD4E9012130469047A1
:10022000206A401C20626D1EF6D570BD70B5044674
:1002300085690078C00707D170BDD4E9012120206D
:100240009047206A401C20626D1EF6D570BD0000EC
:100250002DE9F0410646002410687529314616A59F
:1002600010D0AFF30080002802DA404213A507E067
:1002700031688A0701D512A502E0490704D511A506
:10028000012401E0AFF3008000210A2206F12407D7
:1002900009E0B0FBF2FCB0FBF2F302FB1C003030D3
:1002A00078541846491C0028F3D123462A46304684
:1002B000BDE8F04100F04BB9000000002D00000047
:1002C0002B0000002000000070B504460D462146BA
:1002D0001068AFF300802188090502D50F4A7A44DF
:1002E00002E00E4A7A440E32002104F1240305E0B4
:1002F00000F00F060009965D5E54491C0028F7D1F6
:1003000020780023000704D5702D02D009B1022304
:1003100011322046BDE8704000F019B927350000C1
:100320002DE9F05F894604464FF0000ADFF824B15A
:10033000FB44C0F820A02046E168884700287DD013
:10034000252806D0D4E901219047206A401C20626C
:10035000F1E700255F462046E168884720280646E9
:1003600007DB312E05D2B81910F8200C08B105436F
:10037000F1E7A80701D525F00405C4F81CA0002763
:10038000C4F818A02A2E09D0304602F00CFA38B36F
:1003900004EB8708303EC8F8186019E059F8041BD0
:1003A000204604EB87029161E1688847012F0646E9
:1003B00018D1E069002820DA25F020051DE0D8F8E2
:1003C000180000EB800006EB40003038C8F8180039
:1003D0002046E1688847064602F0E5F90028EED19C
:1003E000012F0AD02E2E08D12046E16888477F1CB5
:1003F0000646022F45F02005C4DBA069002803DA79
:10040000404245F00105A061E80701D025F0100544
:10041000A6B1A6F14100192802D8203645F400659E
:100420004A463146204625604D46FFF799FE60B1A9
:10043000012807D0ED1D25F0070000E007E000F1DE
:10044000080978E705F1040975E730467AE7206A7C
:10045000BDE8F09FFD34000010B5431C02E010F829
:10046000011B71B18107FAD14FF0013202C88C1A19
:100470008C4314EAC211F9D0C01A0A0603D0C01E78
:1004800010BDC01A10BD0A0401D0801E10BD0902A3
:10049000FCD0401E10BD10B5203AC0F00B80B1E872
:1004A0001850203AA0E81850B1E81850A0E81850A9
:1004B000BFF4F5AF5FEA027C24BFB1E81850A0E8B2
:1004C000185044BF18C918C0BDE810405FEA827CCC
:1004D00024BF51F8043B40F8043B08BF7047D207E3
:1004E00028BF31F8023B48BF11F8012B28BF20F884
:1004F000023B48BF00F8012B70474FF0000200B5E7
:10050000134694469646203922BFA0E80C50A0E836
:100510000C50B1F12001BFF4F7AF090728BFA0E8E4
:100520000C5048BF0CC05DF804EB890028BF40F8B0
:10053000042B08BF704748BF20F8022B11F0804FF2
:1005400018BF00F8012B70477047704770472DE9BE
:10055000F0470D4699469246044600F1240801688A
:10056000880604D5E06921F01001216000E0012037
:10057000A84201DD471B00E00027A1697A1902EBC0
:100580000900081AA0612078C00602D42046FFF7AF
:1005900037FE002608E0D4E901211AF8060090474A
:1005A000206A401C761C20624E45F4DB2078C00691
:1005B0000AD52046FFF724FE06E0D4E901213020C9
:1005C0009047206A401C2062381EA7F10107F4DC26
:1005D00007E0D4E9012118F805009047206A401C83
:1005E0002062281EA5F10105F3DC2046FFF71EFE60
:1005F0002078000602D50220BDE8F0870120FBE745
:1006000001694A1C02610878704700B58FB0CDE9D6
:1006100001310021059105497944CDE903101146C6
:100620006846FFF77DFE0FB000BD0000E5FFFFFF4D
:100630000A6802F8010B0A607047754600F02CF852
:10064000AE4605006946534620F00700854618B0BF
:1006500020B5FFF7AFFDBDE820404FF000064FF09A
:1006600000074FF000084FF0000B21F00701AC46E7
:10067000ACE8C009ACE8C009ACE8C009ACE8C00906
:100680008D46704710B50446AFF300802046BDE8A4
:100690001040FFF77ABD000000487047C8020020F4
:1006A00001491820ABBEFEE7260002007047FEE7B6
:1006B00010B5114C0221204601F021FF0022022139
:1006C000204600F08AF94FF4F07002F087F802211A
:1006D000204601F00AFF502002F080F80221204657
:1006E00000F076F930B1FF244FF4C87002F076F8CC
:1006F000204610BD0124F7E7000801402DE9F04134
:10070000194D07460221284601F0F9FE0024012672
:1007100006FA04F038424FF00201284611D001F0E9
:10072000EEFE00220221284600F057F9012002F0D7
:1007300055F80221284601F0D8FE322002F04EF88A
:100740000DE001F0DCFE00220221284600F045F910
:10075000322002F043F80221284601F0C6FE641C54
:10076000082CD5DBBDE8F081000801402DE9F041FF
:10077000144E00250221304601F0B7FE0024012767
:100780000221304601F0BBFE00220221304600F07B
:1007900024F9022002F022F80221304601F0A5FEE1
:1007A0000221304600F014F918B107FA04F028438A
:1007B000C5B23C2002F012F8641C082CE0DB28468D
:1007C000BDE8F081000801407047000070B50446A4
:1007D00000F008F90546601C02D004480078044483
:1007E00000F000F9401BA042FAD370BD20000020A9
:1007F0002DE9F84FDFF8B8910024A9F1040B234646
:100800000F2709F1040AABF1040EC9E00125A54048
:100810002A40AA427DD1674ED1F804C0ACEB06084D
:10082000B44532D014DCBCF1030F3AD009DCBCF182
:10083000000F2AD0BCF1010F1CD0BCF1020F31D146
:100840001DE0BCF1110F17D0BCF1120F2AD119E035
:10085000B8F5881F19D006DCB8F5803F15D0B8F57B
:10086000801F1FD111E0B8F5001F0ED0B8F5041F8E
:1008700018D10AE0CB6815E0CB681B1D12E0CB68ED
:1008800008330FE0CB680C330CE08B682BB1012BE5
:100890004FF0080303D0456104E0042302E0056142
:1008A00000E00023FF2A01D8064601E000F104061B
:1008B0004FEA840501D9A5F12005D6F8008007FA92
:1008C00005FC28EA0C0803FA05F548EA0508C6F80D
:1008D00000804D68ED0062D5374DAE6946F00106E7
:1008E000AE61AD6924F0030605F001050095334DB6
:1008F00006EB050CDCF80850A607360F07FA06F8D9
:1009000025EA0805DFF8B880404503D14FF000081C
:1009100017E044E0DFF8AC80404502D14FF0010819
:100920000FE0DFF8A480404502D14FF0020808E054
:10093000DFF89880404502D14FF0030801E04FF006
:10094000040808FA06F848EA0508CCF808804D685B
:10095000D9F80060ED024D4601D5164300E09643FC
:100960002E604D68DAF80060AD02554601D5164399
:1009700000E096432E604D68DBF80060AD035D46F5
:1009800001D5164300E096432E604D68DEF8006006
:10099000ED03754601D5164300E096432E60641CB6
:1009A0000D682A46E5407FF431AFBDE8F88F0000BE
:1009B0000804014000001110001002400000014036
:1009C00000080140000C01400010014000140140EB
:1009D0008068084000D0012070470AB1016170476B
:1009E0000904FBE7014880687047000020000020F0
:1009F00070B5040025D094F83D00002520B984F896
:100A00003C50204600F0B8F8242084F83D002068CF
:100A1000016821F0010101602068016841F4004192
:100A200001602068016821F40041016000F0F2F9E2
:100A30004D4A6168914201D84C4900E04C498842D6
:100A400001D2012070BD4B492368B0FBF1F15E6813
:100A500026F03F060E435E606368934206D94FF46A
:100A6000967359434FF47A73B1FBF3F12368491C31
:100A70001E6A26F03F06314319626168914210D820
:100A80004900401EB0FBF1F2521CC2F30B02042AD3
:100A900001D2042022E0B0FBF1F0401CC0F30B00B7
:100AA0001CE0A268F2B301EBC10303EB0116431E85
:100AB000B3FBF6F35B1C43F480431B0549D092B3B0
:100AC00001EBC10202EB0111401EB0FBF1F0401C32
:100AD000C0F30B0040F4804040F400402168CA6934
:100AE0004CF6FF739A431043C861D4E907100143E1
:100AF0002068026822F0C00211430160D4E90301BA
:100B000001432068826848F2FF339A4311438160B1
:100B1000D4E9050108432168CA6822F0FF021043A6
:100B2000C86001E00EE016E02068016841F00101B4
:100B300001602564202084F83D00256384F83E5040
:100B4000002070BD01EB4106431EB3FBF6F35B1CB6
:100B5000B3E70120C2E701EB4101401EB0FBF1F019
:100B6000401CC0F30B00B7E7A086010080841E0084
:100B700000093D0040420F0010B586B000210091F1
:100B800001910291039100680F4988421AD10F4CDC
:100B9000A06940F00800A061A069694600F0080063
:100BA0000490C02000901220019003200390084878
:100BB000FFF71EFEE06940F40010E061E06900F418
:100BC0000010049006B010BD005400400010024018
:100BD000000C01400248816802781144816070472E
:100BE00020000020074810B5016841F010010160A5
:100BF000032000F067F80F2000F006F800F024F85A
:100C0000002010BD0020024070B50D4D04464FF489
:100C10007A712878B1FBF0F00A490968B1FBF0F06D
:100C200000F0B9FD48B9102C07D200222146501E11
:100C300000F028F800206C6070BD012070BD00003D
:100C4000200000202C0000200C4808B5816941F0EC
:100C500001018161816901F001010091C16941F0E7
:100C60008051C161C06900F0805000900448416823
:100C700021F0E06141F00071416008BD00100240C8
:100C800000000140F0B40E4B1B680C46C3F3022376
:100C9000C3F10705042D00D90425191D072901D228
:100CA000002300E0DB1E012606FA05F1491E214063
:100CB00099409E40761E16403143F0BC01F063BD62
:100CC0000CED00E0064900F0070208684FF6FF034C
:100CD000184040EA0220034A1043086070470000B1
:100CE0000CED00E00000FA052DE9F0470F46050085
:100CF00061D0434E306800F00700B84209D2306836
:100D000020F0070038433060306800F00700B84238
:100D100051D128683B4C810712D5400703D5606844
:100D200040F4E06060602878000703D5606840F414
:100D3000605060606068A96820F0F000084360605F
:100D40002878C00728D06868012810D021680228B8
:100D500010D0890700292EDA616821F003010143D0
:100D60006160FFF73FFE804641F288390DE021685F
:100D70008903EFE78901EDE7FFF734FEA0EB0801F7
:100D8000494502D90320BDE8F0876068696800F032
:100D90000C00B0EB810FEFD1306800F00700B842D3
:100DA0000BD9306820F0070038433060306800F01D
:100DB0000700B84201D00120E5E72878400705D5B3
:100DC0006068E96820F4E060084360602878000704
:100DD00006D56068296920F4605040EAC10060606F
:100DE00000F038F86168084AC1F30311515CC8404B
:100DF0000649086006480068FFF706FF0020C2E7C2
:100E00000020024000100240E43700082C000020BF
:100E1000240000200448054900684968044AC1F3D9
:100E20000221515CC84070472C0000200010024095
:100E3000F43700080448054900684968044AC1F3CA
:100E4000C221515CC84070472C00002000100240B5
:100E5000F43700080E4A51680E4801F00C03042BC9
:100E600011D0082B0FD10C48C1F38343C903C05CD8
:100E70000AD55168084AC1F34041921E515C054AA7
:100E80005043B0FBF1F070470449484370470000FD
:100E90000010024000127A00D437000800093D001B
:100EA0002DE9F84F040070D02078C04DC00749D01C
:100EB0006868C0F38100012807D06868C0F381002A
:100EC000022809D16868C00306D52868800339D58F
:100ED00060680028E7D035E06068B0F5803F0BD04F
:100EE00010B1B0F5A02F11D0286820F48030286010
:100EF000286820F4802002E0286840F480302860D0
:100F0000606890B1FFF76EFD06460AE0286840F47D
:100F100080202860F0E700BFFFF764FD801B642895
:100F200073D828688003F7D50CE0FFF75BFD064611
:100F300005E000BFFFF756FD801B6428F0D8286845
:100F40008003F7D420789A4E80074FF001094FF0C4
:100F5000000839D5686810F00C0F07D06868C0F336
:100F60008100022809D16868C00306D42868800778
:100F700014D52069012808D110E02069B0B1C6F865
:100F80000090FFF72FFD074605E00AE1FFF72AFD75
:100F9000C01B0228C4D828688007F7D52868616973
:100FA00020F0F80040EAC10028600DE0C6F800809B
:100FB000FFF718FD074604E0FFF714FDC01B0228E9
:100FC00023D828688007F7D4207800072CD57948E3
:100FD000A169D9B1C0F80090FFF704FD074604E00D
:100FE000FFF700FDC01B02280FD8686A8007F7D5FD
:100FF00071484FF4FA510068B0FBF1F0009000BF67
:101000000098411E0091FAD20EE080E0C0F8008006
:10101000FFF7E8FC074604E0FFF7E4FCC01B0228EA
:1010200075D8686A8007F7D42078400760D5E869EA
:101030000027C00008D4E86940F08050E861E86902
:10104000012700F0805000905C480168C90513D466
:101050000168834641F480710160FFF7C3FC82465A
:1010600006E000BFFFF7BEFCA0EB0A0064284ED8E4
:10107000DBF80000C005F5D5E06801280AD008B10A
:10108000052813D0286A20F001002862286A20F081
:10109000040002E0286A40F001002862E06841F2A2
:1010A000883B98B1FFF79EFC82460BE0286A40F02F
:1010B00004002862EEE700BFFFF794FCA0EB0A01F2
:1010C00059455AD8286A8007F6D50CE0FFF78AFC04
:1010D000824605E0FFF786FCA0EB0A0159454CD893
:1010E000286A8007F6D41FB1E86920F08050E861D3
:1010F000E06988B36968C1F38101022944D00228FC
:10110000C6F8608004D0FFF76DFC044638E034E098
:10111000FFF768FC074604E0FFF764FCC01B0228E9
:101120002BD828688001F7D4206AB0F5803F05D11C
:101130006868A16820F4003008436860D4E90801B9
:101140000843696821F4741108436860C6F8609028
:10115000FFF748FC044606E025E000BFFFF742FC2D
:10116000001B022809D828688001F7D51BE000BFC2
:10117000FFF738FC001B022802D90320BDE8F88FD6
:1011800028688001F4D40EE00128F7D06868226A4C
:1011900000F48031914204D1616A00F470108842F9
:1011A00001D00120EAE70020E8E70000001002403B
:1011B00000004242800442422C00002000700040A7
:1011C00070B5040009D0606A002540B125616561F1
:1011D000A56294F8510040B10CE0012070BD606838
:1011E000B0F5827FF4D0E561F2E784F850502046F4
:1011F00000F040F8022084F851002068016821F0D6
:1012000040010160A088218900F4827001F404414A
:101210000843A18901F400610843217C01F0020127
:101220000843217D01F001010843218B01F4007185
:101230000843217F01F03801084394F8201001F0A1
:1012400080010843218D01F40051084321680860A2
:10125000A069042101EA1040216848602068C16942
:1012600021F40061C1616565012084F8510000200E
:1012700070BD000030B585B0002400940194029444
:10128000039400681449884223D11448816941F4C9
:1012900080518161816901F480510491816941F03B
:1012A0000401816180690E4D00F004000490A020CB
:1012B0000090022001900320039069462846FFF722
:1012C00097FA4020CDE90004694628460294FFF7CA
:1012D0008FFA05B030BD0000003001400010024020
:1012E000000801402DE9F84F044690F85100984657
:1012F00016460F460025012801D0022598E06068B7
:101300004FF0040BB0F5827F01D1A068F8B194F8DA
:101310005000012826D04FF0010984F85090FFF7C3
:1013200061FB8246002F7FD0002E7DD084F851B023
:1013300000206065A763A687E6872063A086E08615
:1013400020646064A068B0F5004F0DD016E084F80A
:1013500051B013460A462046CDF8008000F024F92B
:10136000BDE8F88F0220FBE72068016821F040010A
:1013700001602068016821F48041016020680168F3
:10138000490603D4016841F040010160E068D8B12A
:101390003BE020688168C90709D0007BA16B087019
:1013A000A06B401CA063E08F401EE0870CE0FFF7BD
:1013B00019FBA0EB0A01414503D3B8F1FF3F03D06D
:1013C00006E0B8F1000F03D0E08F0028E1D11FE064
:1013D00003252BE020688168C90709D0C068A16B8C
:1013E0000880A06B801CA063E08F401EE0870CE0AB
:1013F000FFF7F8FAA0EB0A01414503D3B8F1FF3F2C
:1014000003D0E5E7B8F1000FE2D0E08F0028E1D18A
:1014100052464146204600F0CCFF08B120206065CE
:10142000606D00E000E008B1012501E084F8519012
:10143000002084F85000284692E72DE9F84F044632
:1014400090F850000026984615468A4601280CD090
:10145000012784F85070FFF7C5FA814694F85100CF
:10146000B346012804D002269AE00220BDE8F88F96
:10147000BAF1000F6FD0002D6DD0032084F8510019
:10148000C4F854B0C4F830A0A586E586C4F838B0D6
:10149000A4F83CB0A4F83EB0C4F844B0C4F840B0DE
:1014A000A068B0F5004F09D12068016821F0400123
:1014B00001602068016841F4804101602068016892
:1014C000490603D4016841F040010160E068B0F5CD
:1014D000006F606803D058B3012D29D049E008B1EE
:1014E000012D1FD1206B21680088C86006E02068AC
:1014F0008168890709D5216B0988C160206B801C30
:101500002063E08E401EE0860CE0FFF76BFAA0EB54
:101510000901414503D3B8F1FF3F03D006E0B8F11C
:10152000000F03D0E08E0028E1D125E0032635E04E
:10153000206B21680078087306E0206881688907BD
:101540000AD5216B09780173206B401C2063E08E63
:10155000401EE0860DE01FE0FFF744FAA0EB090112
:10156000414503D3B8F1FF3F03D0DFE7B8F1000FE7
:10157000DCD0E08E0028E0D14A464146204600F00B
:1015800046FF08B120206065A06818B92068C168CE
:1015900080680090606D08B1012601E084F8517008
:1015A00084F850B0304661E72DE9FF4F81B0044622
:1015B00090F8500000260E9F1D4693464FF00109FB
:1015C00001280FD04FF0010A84F850A0FFF70AFA63
:1015D000804694F85100616801280DD0B1F5827FF2
:1015E00008D103E0022005B0BDE8F08FA16809B979
:1015F000042801D00226C9E00298002865D0BBF17A
:10160000000FFBD0002DF9D094F85100042802D02F
:10161000052084F8510000206065C4F838B0E587E3
:10162000A58702992163E586A58620646064206809
:101630000168490603D4016841F040010160E06897
:10164000B0F5006F606803D0F0B3012D47D081E0A2
:1016500008B1012D3CD1206B21680088C860206B47
:10166000801C2063E08E401EE08631E020688168A7
:1016700089070FD5E18E69B1B9F1010F0AD1216B4C
:101680000988C160206B801C2063E08E401EE086CC
:101690004FF0000920688168C9070CD0E18F51B173
:1016A000C068A16B0880A06B801CA063E08F401E07
:1016B000E0874FF00109FFF795F9A0EB0800B84269
:1016C00006D3781C04D001E009E05BE003265BE070
:1016D000E08E0028CAD1E08F0028C7D140E0206BFF
:1016E000216800780873206B401C2063E08E401E48
:1016F000E0862FE02068816889070FD5E18E69B107
:10170000B9F1010F0AD1216B09780173206B401CDC
:101710002063E08E401EE0864FF00009206881685B
:10172000C9070CD0E18F51B1C068A16B0870A06BE4
:10173000401CA063E08F401EE0874FF00109FFF7D7
:1017400051F9A0EB0800B84202D3781C02D0BAE7E6
:10175000002FB8D0E08E0028CCD1E08F0028C9D16E
:1017600042463946204600F052FE18B1012620209C
:1017700060650BE0A06818B92068C16880680090B7
:10178000606D08B1012601E084F851A0002084F8C2
:101790005000304627E710B5401EB0F1807F01D3DE
:1017A000012010BD4FF0E02460610F21601700F0B0
:1017B000EAFF0020A06107202061002010BD00008A
:1017C00070B590F83C20012A26D0012480F83C40D6
:1017D000022280F83D2003685A689D6822F0700656
:1017E0000A6832435A600D4B02689A4208D0B2F13F
:1017F000804F05D00A4B9A4202D00A4B9A4204D13C
:10180000496825F080031943916080F83D4000212C
:1018100080F83C10084670BD022070BD002C0140CD
:10182000000400400008004010B5040003D094F804
:101830003D0010B107E0012010BD002084F83C00FD
:10184000204600F01FF8022084F83D00211D20688A
:1018500000F094FE012084F8460084F83E0084F8ED
:101860003F0084F8400084F8410084F8420084F886
:10187000430084F8440084F8450084F83D000020CB
:1018800010BD000008B500680649884208D1064826
:10189000816941F400618161806900F40060009019
:1018A00008BD0000002C01400010024090F83D10DF
:1018B000012901D001207047022180F83D10006805
:1018C0000B49884208D0B0F1804F05D009498842C1
:1018D00002D00949884204D1816801F00701062934
:1018E00003D0016841F00101016000207047000051
:1018F000002C0140000400400008004070B5044680
:1019000090F83C000025012817D0012684F83C609F
:10191000022084F83D002068826822F0770222F4D9
:101920007F4282600868502838D00DDC20284FD0D4
:1019300005DC90B3102811D14AE0022070BD302898
:1019400046D040280AD13BE060282FD070280DD027
:10195000B0F5805F03D0B0F5005F12D0012584F8A8
:101960003D60002084F83C00284670BDCB68D1E97A
:101970000121206800F038FE2068816841F077017D
:1019800009E0CB68D1E90121206800F02DFE206834
:10199000816841F480418160E1E719E0CA684968E3
:1019A000206800F033FE5021206806E0CA684968CC
:1019B000206800F03CFE6021206800F01FFECEE7AA
:1019C000CA684968206800F021FE40212068F4E7D9
:1019D000226801461046F0E770B5040004D094F880
:1019E0004100002510B106E0012070BD84F8405090
:1019F000204600F023F8242084F841002068C168C4
:101A000021F40051C160204600F024FE20680169E5
:101A100021F4904101612068416921F02A0141616E
:101A20002068C16841F40051C1606564202084F8D9
:101A3000410084F842006563002070BD30B585B078
:101A4000002400940194029403940068144988428D
:101A500024D11448C16941F48021C161C16901F4F4
:101A600080210491816941F00801816180690E4DF6
:101A700000F0080004904FF4806000900220019074
:101A80000320039069462846FEF7B2FEE814CDE92C
:101A90000004694628460294FEF7AAFE05B030BD50
:101AA0000048004000100240000C01402DE9F843BE
:101AB000044690F841001F4616460D46202802D0E5
:101AC0000220BDE8F8837DB176B10020606421205A
:101AD00084F84100FEF786FFA6848046E684A0686D
:101AE000B0F5805F02D003E00120EAE7206910B181
:101AF0002E4600250EE000260CE08021204600F056
:101B000005FEA0B9AEB116F8010B21684860E08C63
:101B1000401EE084E08C43464FF00002009700280E
:101B2000EBD14FF04001204600F0F0FD30B1032032
:101B3000C7E735F8020BC0F30800E6E7202084F879
:101B400041000020BDE7FEE72DE9F04786B0002404
:101B500031480094019402940394816941F010018A
:101B60008161816901F010010491816941F02001D6
:101B70008161816901F020010491816941F00401D2
:101B80008161816901F004010491816941F00801DA
:101B900081618069DFF8848000F008004FF400550F
:101BA0000490002229464046FEF717FFDFF87090A8
:101BB00040F21A47002239464846FEF70EFFDFF88A
:101BC00064A0002218215046FEF707FF0095022668
:101BD00001250396CDE9015469464046FEF708FE0B
:101BE00000970396CDE9015469464846FEF700FE8A
:101BF0001820CDE90005CDE9024669465046FEF7BA
:101C0000F7FD2802CDE90004694650460294FEF72C
:101C1000EFFD06B0BDE8F087001002400010014063
:101C200000080140000C01400F4810B50D4901604B
:101C30004FF48271416000218160C1604FF40072F5
:101C40000161C0E905121822C0E9072141628162E1
:101C50000A21C162FFF7B4FA002801D072B6FEE78C
:101C600010BD0000003001409C00002010B586B07F
:101C70000024174800940194029403940494134997
:101C8000059401604721C0E901144FF6FE71C0E9D7
:101C9000031444618461FFF7C7FD08B172B6FEE723
:101CA0004FF48050009069460948FFF727FE08B1BD
:101CB00072B6FEE7049404A905480594FFF780FD79
:101CC000002801D072B6FEE706B010BD002C01401E
:101CD000F4000020FEE7FEE708B5002000F00CF954
:101CE00050208DF8000073208DF80100642302223B
:101CF00069460348FFF7A1FB012000F0FDF808BD8D
:101D0000280200200449054A0968B1FBF2F1414369
:101D1000491EFDD2704700002C000020C0C62D00D7
:101D20000020AFF3008070B5054600F00EF90446C0
:101D3000C0F380166EB115B1C4F342002870402183
:101D4000072000F0FFFAA00603D52021072000F0AD
:101D5000F9FA304670BD00000FB47CB514460D464C
:101D60000646582209A95D48FEF795FB5C4B012009
:101D7000DE60DD801C8100F0BFF8002000F0B2F8CA
:101D80000520FEF723FD0821002000F0DBFA3F21AB
:101D9000012000F0D7FA0321022000F0D3FA03213A
:101DA000084600F0CFFA0321042000F0CBFA02210C
:101DB000052000F0C7FA0F21062000F0C3FA0E211B
:101DC000072000F0BFFA0021082000F0BBFA002134
:101DD000092000F0B7FAE7248DF803408DF802409F
:101DE0008DF801408DF804408DF8004005226946C9
:101DF0000A2000F0BFFAC2208DF803008DF802001F
:101E00008DF801008DF804008DF800000522694668
:101E10000B2000F0AFFAC3210C2000F093FAC4218C
:101E20000D2000F08FFAC5210E2000F08BFAC6219C
:101E30000F2000F087FA8DF803408DF802408DF8EE
:101E400001408DF804408DF80040052269461020BD
:101E500000F090FA0021112000F074FA0021122005
:101E600000F070FA0021132000F06CFA0021142019
:101E700000F068FA0021152000F064FA0021162015
:101E800000F060FAFFF728FF00211C2000F05AFA4A
:101E900000211D2000F056FA00F0FAFD0F2108463F
:101EA00000F090F9032000F067F9012000F036F906
:101EB000022000F018F900F029F8202000F07AF94B
:101EC00000F006F94C2000F022F900F037F800F09D
:101ED00031F800F07FF87CBC5DF814FB280200208C
:101EE00030000020020003480189C06800D00122B0
:101EF000FEF773BD3000002002000348C188C068AF
:101F000000D00122FEF769BD3000002010B51D2071
:101F100000F0A0F820F004011D2000F013FA0021C9
:101F20001C2000F00FFA02490020C87010BD00000C
:101F300030000020FF21E22000F004BAFF21E12060
:101F400000F000BA602000F085B8072000F082B8E9
:101F50007FB504001248134D06D0062C1ED8022C63
:101F600007D2005D052206E0DDE90212C5E9041290
:101F7000F7E7005D012202A900F0FCF90848A97802
:101F8000801F005D00F0DEF9022000F063F80121FF
:101F9000A1400843C1B2022000F0D4F97FBD000087
:101FA000023800083000002013B5052269460A20D7
:101FB00000F0E0F905226946102000F0DBF9044842
:101FC0008178202900D32021112000F0BBF91CBD0D
:101FD0003000002010B5002000F03CF820F0020195
:101FE000BDE81040002000F0ADB910B500F010F8C9
:101FF000172000F02FF800F00104FFF79BFF60208E
:1020000000F028F80CB1012010BD002010BD000028
:1020100038B505460D4884788C4200D90C4600201E
:10202000FFF76AFF61208DF80000642301226946F2
:102030000748FFF702FA6423224629460448FFF7BF
:1020400051F90120FFF758FF38BD00003000002093
:102050002802002038B504460020FFF74DFF04F0A9
:102060001F008DF800006423012269460848FFF72D
:10207000E4F96423012206480DF10101FFF732F96A
:102080009DF801400120FFF737FF204638BD0000D2
:1020900028020020F8B5044615460E460020FFF73A
:1020A0002BFF04F01F008DF8000064230122694615
:1020B0000648FFF7C2F964232A4631460348FFF772
:1020C00011F90120FFF718FFF8BD000028020020D9
:1020D0007021072000F036B908B13F2100E000214F
:1020E000012000F02FB910B504460020FFF7B2FF21
:1020F00020F00C011CB1012C06D041F00C01BDE810
:102100001040002000F01EB941F00801F7E77F28D9
:1021100000D37F200146052000F014B92DE9F041DD
:1021200007464FF000080620FFF794FF114D0026E8
:1021300020F028046E71022F0ED0012F10D06E7186
:102140002146062000F0FEF80620FFF783FFA0429C
:102150000BD14FF0010809E06E7144F02004EFE765
:102160000120687144F00804EAE76E714046BDE85A
:10217000F08100003000002010B504460620FFF773
:1021800069FF20F00601032C0DD0022C05D0012C94
:1021900006D054B1042C06D007E041F0040104E05D
:1021A00041F0020101E041F00601BDE810400620C7
:1021B00000F0C8B8202800D320200149887070475B
:1021C0003000002000F00F0060F31F11042000F029
:1021D000B9B8000010B50020FFF73CFF40F0030144
:1021E000002000F0AFF80B49D1E90401084305D005
:1021F0000849052210310A2000F0BCF8FFF79EFEC6
:10220000FFF798FE0120FFF76DFEBDE81040962015
:10221000FFF778BD3000002070B505460C46002061
:10222000FFF760FE0020FFF715FF20F0010040F0EF
:102230000201002000F086F80120FFF753FE9620EF
:10224000FFF760FD2146284600F060F80120FFF707
:1022500049FE0F20FFF756FDBDE870400020FFF754
:1022600041BE10B50020FFF73DFEFFF767FEBDE859
:102270001040FFF75FBE2DE9F04115460E460446BB
:10228000FFF763FE0746002020707021072000F052
:1022900059F8C7F340102070C7F300103070C7F32F
:1022A00080102870BDE8F0813EB50C460546FFF76A
:1022B0000FFF21462846FFF7AFFFFEF793FB0446CA
:1022C000012201A90820FFF7E5FEFFF73EFE10F00E
:1022D000300F04D1FEF786FB001B0A28F0D30A4A10
:1022E00002A96846FFF7C7FF074C9DF80050207809
:1022F00010B1FFF727FE60700020FFF714FDFFF715
:102300001DFE28463EBD00003000002038B50546C1
:102310000C460020FFF7F0FDA0208DF8000064239C
:10232000012269460648FFF788F8642322462946B9
:102330000348FFF782F80120FFF7DEFD38BD0000FB
:102340002802002038B505460C460020FFF7D4FDD2
:1023500045F020008DF800008DF801406423022232
:1023600069460348FFF769F80120FFF7C5FD38BD4E
:1023700028020020F8B5044615460E460020FFF757
:10238000BBFD44F020008DF8000064230122694663
:102390000648FFF752F864232A4631460348FFF700
:1023A0004CF80120FFF7A8FDF8BD0000280200202E
:1023B0007047F8B5044640684FF48273984217D1CD
:1023C000A0684FF48065B0F5004F01D0A8420FD14E
:1023D0002068066826F0400606606068984207D1CB
:1023E000A068A84204D100920B460022012103E01C
:1023F00000920B4600228021204600F019F80028A8
:1024000004D0606D40F0200060650320F8BD38B551
:102410000B46009204460022802100F009F80028B3
:1024200004D0606D40F020006065032038BD0000DE
:102430002DE9F8431E46914688460446089DFEF75E
:10244000D1FA401B351AFEF7CDFA07462548006839
:10245000C0F3CB30684338E0701C37D0FEF7C2FAC7
:10246000C01BA84203D215B1009860B32CE02068CD
:10247000416821F0E00141606068B0F5827F0BD1D6
:10248000A068B0F5004F02D0B0F5806F04D120688D
:10249000016821F040010160A06AB0F5005F09D138
:1024A0002068016821F4005101602068016841F44E
:1024B00000510160012084F85100002084F8500090
:1024C0000320BDE8F8830025401E00902068816845
:1024D00038EA010004D000214945BDD10020F0E7D1
:1024E0000121F9E72C00002070471FB50022009160
:1024F0000192029203926946FEF77AF91FBD1FB559
:10250000002200910121CDE90112022103916946C7
:10251000FEF76EF91FBDFEF75DBB30B58FB0282109
:102520006846FDF7EAFF14210AA8FDF7E6FF01213E
:102530000804CDE900100024029402250491CDE99D
:1025400007504FF4E01009906846FEF7A9FC08B167
:1025500072B6FEE70F20CDE90A054FF48060CDE9A1
:102560000C4002210AA80E94FEF7BEFB002801D001
:1025700072B6FEE70FB030BD70470000F0B50268DC
:10258000164B174C174D4FF08047984205D0B84274
:1025900003D0A04201D0A84203D122F070064A68BD
:1025A0003243984205D0B84203D0A04201D0A8429D
:1025B00003D122F44074CA6822434C6922F080029D
:1025C000224302608A68C2620A688262984201D12C
:1025D0000969016301214161F0BD0000002C014047
:1025E000000400400008004010B5846842EA03225D
:1025F00024F47F440A432243826010BD826822F0A3
:1026000070020A4342F007018160704710B5036A07
:10261000046A24F001040462846924F0F00444EAAA
:10262000021423F00A020A438461026210BD10B54D
:10263000036A046A24F010040462846923F0A0038E
:1026400024F4704444EA023243EA011182610162D7
:1026500010BD000070B5044600680169E26821F40D
:102660004051114301612169A06808436169084331
:102670002168CA6841F20C639A430243CA60206829
:102680004169A26921F44071114341611E492068EA
:10269000884202D1FEF7CEFB01E0FEF7BBFB00EB68
:1026A000C00101EB0012606864218000B2FBF0F30E
:1026B000B3FBF1F36FF018067343B2FBF0F5B2FB16
:1026C000F0F605EB8305322303EB0515B5FBF1F5B9
:1026D000B6FBF1F605F0F00505EB0615B2FBF0F6DA
:1026E000B2FBF0F0B0FBF1F06FF01802504306EBD4
:1026F000800003EB0010B0FBF1F0216800F00F0048
:102700002844886070BD0000003801402DE9F04188
:10271000984617460E460446069D27E0681C25D0BD
:102720002DB1FEF75FF9A0EB0800A8421ED9206882
:102730000C3050E8001F21F4D07140E80012002A4C
:10274000F5D12068143050E8001F21F0010140E865
:102750000012002AF5D1202084F8410084F84200BC
:10276000002084F840000320BDE8F0812068006864
:1027700036EA000004D00020B842CFD00020F3E7B2
:102780000120F9E7FEE70907090E002804DB00F144
:10279000E02080F80014704700F00F0000F1E02006
:1027A00080F8141D704730380A2801D20120704784
:1027B0000020704710B50188438819448AB200216F
:1027C00007E000BF00EB4104491CA488C9B22244C1
:1027D00092B28B42F6D8D0B210BD0000044900225C
:1027E0000B685A6209684A6A8242FCD3704700004B
:1027F000F4000020ACB0FEF7F5F9FFF78EFEFFF70E
:10280000A3F9FFF711FA9348914900240160924916
:10281000C0E901144FF48041C0E90341446184617F
:10282000C4610462FEF7E4F808B172B6FEE7FFF790
:102830001DFA884D8948F43528604FF4E130C5E928
:1028400001040C20EC60C5E90440AC612846EC6151
:10285000FFF7C2F808B172B6FEE77E48AC30FFF76A
:1028600025F87C493622543115A8FDF714FE794C21
:102870005434E08EADF88A0004F12C00C168239135
:10288000008AADF89000E08FADF89200112204F1BB
:10289000400125A8FDF7FFFD94F851008DF8A50033
:1028A000606D2A90542216A96846FDF7F4FD0822AF
:1028B00010216B48159BFFF74FFA262204F1A00167
:1028C0000EA8FDF7E8FDE88CADF85E0004F1AC0061
:1028D000C1691891008CADF86400E88DADF8660010
:1028E000286B1A90686B1B90092204F1D8011CA870
:1028F000FDF7D1FD95F841008DF8790095F842007B
:102900008DF87A00686C1F90382212A96846FDF78E
:10291000C2FD0DF1380C9CE80F0000F0ADF800F09E
:10292000B7F83420FFF7F3FB2020FFF743FC01202A
:10293000FFF7D2FB4B4C0020D4E90623FFF708FB3E
:10294000DFF82481494EDFF828A14FF480774FF457
:10295000005939464046FEF73BF80128F9D1FFF708
:1029600039FCFDF7A5FE20700120FDF72FFFCC20DC
:10297000FDF7C4FE4420FDF7C1FE4FF44870FDF79B
:1029800025FFFDF795FE20700120FDF71FFFCC20ED
:10299000FDF7B4FEBE20FDF7B1FEFDF7E7FE607067
:1029A000FDF7E4FEA070617841EA0020A08000F00D
:1029B0005BFD6FF0030100F0CEFE314600F09CFDA0
:1029C000E0600A20FDF702FFFFF7AAF998B1202185
:1029D0002848FFF70AFB274800F042FC2548C18839
:1029E000808800EB800001EB4000E080A0F10A014C
:1029F0006181401F2081FFF734FCD4E90401FFF717
:102A0000D3FA1C4D0120403D288002206880E068F8
:102A100000F00AFDA8802846FFF7CCFE288120217F
:102A20002846FFF741FCE08800F01EFD05463146D0
:102A3000E06800F037FC294600F02AFE01D20022AF
:102A400000E0012249465046FDF7C7FF81E700003C
:102A50000054004048000020A086010000480040CB
:102A60000008014000000020000C01400000C842A6
:102A700000100140C40100200FB4482210B502A983
:102A80000248FDF708FD10BC5DF814FB8002002031
:102A900010B5A0B0F4A104A8FDF79EFB04A8FDF7B3
:102AA000DBFC82B20A2304A9FC48FEF7FFFF0020EA
:102AB000FFF7D0FA01077AD5400701D5F8A100E069
:102AC000FEA104A8FDF788FB04A8FDF7C5FC82B2AF
:102AD0000A2304A9F148FEF7E9FF0120FFF7BAFA3B
:102AE000C0F34014C0F30013C0F3C002C0F3800170
:102AF0008DE81E0000F00102C0F34003F64904A86F
:102B0000FDF76AFB04A8FDF7A7FC82B20A2304A91B
:102B1000E248FEF7CBFF0220FFF79CFAC0F3401417
:102B2000C0F30013C0F3C002C0F380018DE81E00A3
:102B300000F00102C0F34003E84904A8FDF74CFB94
:102B400004A8FDF789FC82B20A2304A9D348FEF742
:102B5000ADFF0320FFF77EFA00F00302E0A104A816
:102B6000921CFDF739FB04A8FDF776FC82B20A231C
:102B700004A9CA48FEF79AFF0520FFF76BFA00F098
:102B80007F02DEA104A8FDF727FB04A8FDF764FC83
:102B900082B20A2304A9C148FEF788FF0620FFF786
:102BA00059FA0446000704D5D9A103E0FFE7DEA1E6
:102BB00087E7E2A104A8FDF70FFB04A8FDF74CFC92
:102BC00082B20A2304A9B548FEF770FF032010EA79
:102BD000540006D0012806D0022806D0032806D0CB
:102BE00009E0DCA104E0E0A102E0E4A100E0E8A14A
:102BF00004A8FDF7F1FA04A8FDF72EFC82B20A231F
:102C000004A9A648FEF752FF05221DA90A20FFF7D6
:102C100041FA9DF876009DF874209DF875108DE8B6
:102C200007009DF877309DF87820DEA104A8FDF715
:102C3000D3FA04A8FDF710FC82B20A2304A997482E
:102C4000FEF734FF05221DA90B20FFF723FA9DF89C
:102C500076009DF874209DF875108DE807009DF8AA
:102C600077309DF87820DBA104A8FDF7B5FA04A819
:102C7000FDF7F2FB82B20A2304A98848FEF716FF8B
:102C800001221DA90C20FFF705FA9DF87420DDA193
:102C900004A8FDF7A1FA04A8FDF7DEFB82B20A231F
:102CA00004A97E48FEF702FF01221DA90D20FFF7AF
:102CB000F1F99DF87420DDA104A8FDF78DFA04A8B0
:102CC000FDF7CAFB82B20A2304A97448FEF7EEFEA0
:102CD00001221DA90E20FFF7DDF99DF87420DDA16A
:102CE00004A8FDF779FA04A8FDF7B6FB82B20A231F
:102CF00004A96A48FEF7DAFE01221DA90F20FFF79A
:102D0000C9F99DF87420DDA104A8FDF765FA04A8AF
:102D1000FDF7A2FB82B20A2304A96048FEF7C6FEB3
:102D200005221DA91020FFF7B5F99DF876009DF842
:102D300074209DF875108DE807009DF877309DF898
:102D40007820D8A104A8FDF747FA04A8FDF784FB72
:102D500082B20A2304A95148FEF7A8FE1120FFF70A
:102D600079F900F03F02DAA104A8FDF735FA04A8CA
:102D7000FDF772FB82B20A2304A94848FEF796FECB
:102D80001220FFF767F900F03F02D8A104A8FDF771
:102D900023FA04A8FDF760FB82B20A2304A93F4886
:102DA000FEF784FE1320FFF755F900F03F02D6A18D
:102DB00004A8FDF711FA04A8FDF74EFB82B20A231E
:102DC00004A93648FEF772FE1420FFF743F900F01D
:102DD0003F02D4A104A8FDF7FFF904A8FDF73CFBCE
:102DE00082B20A2304A92D48FEF760FE1520FFF7E2
:102DF00031F900F03F02D2A104A8FDF7EDF904A8D3
:102E0000FDF72AFB82B20A2304A92448FEF74EFEEE
:102E10001620FFF71FF900F03F02D0A104A8FDF72C
:102E2000DBF904A8FDF718FB82B20A2304A91B48AA
:102E3000FEF73CFE1C20FFF70DF9C0F34014C0F371
:102E40000013C0F3C002C0F380018DE81E0000F043
:102E50000102C0F34003C84904A8FDF7BDF904A866
:102E6000FDF7FAFA82B289E10D0A2A2A2A2A2A2AC9
:102E70002A2A2A2A2A2A2A2A2A2A2A2A2A2A2A2AB2
:102E80002A2A2A2A2A2A2A2A2A2A2A2A2A2A2A2AA2
:102E90002A2A2A2A2A2A2A2A0D0A00008002002029
:102EA0004352433A0D0A0909456E61626C65642C10
:102EB0002032204279746573200D0A004352433A50
:102EC0000D0A0909456E61626C65642C203120424F
:102ED000797465200D0A000044380008883800081D
:102EE00053455455505F41573A0D0A09092564204E
:102EF0006279746573200D0A0000000052465F433A
:102F0000483A0D0A09092564204348200D0A0000AB
:102F10004461746120526174653A0D0A0909324DA9
:102F2000627073200D0A00004352433A0D0A0909EA
:102F300044697361626C6564200D0A0044617461C8
:102F400020526174653A0D0A0909314D627073208F
:102F50000D0A000052465F5057523A0D0A09092DDA
:102F600031386442200D0A0052465F5057523A0DE4
:102F70000A09092D31326442200D0A0052465F5081
:102F800057523A0D0A09092D366442200D0A0000F5
:102F900052465F5057523A0D0A0909306442200DDB
:102FA0000A00000052585F50697065302041646427
:102FB00072733A0D0A0909253032582C25303258DF
:102FC0002C253032582C253032582C2530325820C0
:102FD000200D0A0052585F506970653120416464C9
:102FE00072733A0D0A0909253032582C25303258AF
:102FF0002C253032582C253032582C253032582090
:10300000200D0A0052585F50697065322041646497
:1030100072733A0D0A090978782C78782C78782C14
:1030200078782C2530325820200D0A0052585F50F5
:10303000697065332041646472733A0D0A09097836
:10304000782C78782C78782C78782C253032582089
:10305000200D0A0052585F50697065342041646445
:1030600072733A0D0A090978782C78782C78782CC4
:1030700078782C2530325820200D0A0052585F50A5
:10308000697065352041646472733A0D0A090978E4
:10309000782C78782C78782C78782C253032582039
:1030A000200D0A0054582041646472733A0D0A09D5
:1030B00009253032582C253032582C253032582CE6
:1030C000253032582C2530325820200D0A000000BF
:1030D00052585F50575F50303A0D0A090925642055
:1030E0006279746573200D0A0000000052585F5029
:1030F000575F50313A0D0A090925642062797465D9
:1031000073200D0A0000000052585F50575F503284
:103110003A0D0A09092564206279746573200D0A45
:103120000000000052585F50575F50333A0D0A09B3
:10313000092564206279746573200D0A000000007F
:1031400052585F50575F50343A0D0A0909256420E0
:103150006279746573200D0A0000000052585F50B8
:10316000575F50353A0D0A09092564206279746564
:1031700073200D0A00000000D43800080A2304A9B7
:103180001C48FEF793FC1D20FEF764FF0446400731
:1031900001D519A100E01EA104A8FDF71DF804A89F
:1031A000FDF75AF982B20A2304A91248FEF77EFC01
:1031B000A00701D51CA100E022A104A8FDF70CF88E
:1031C00004A8FDF749F982B20A2304A90948FEF7C9
:1031D0006DFCAFF26C3104A8FCF7FEFF04A8FDF70C
:1031E0003BF982B20A2304A90248FEF75FFC20B033
:1031F00010BD000080020020454E5F44504C3A0D47
:103200000A0909456E61626C6564200D0A000000C0
:10321000454E5F44504C3A0D0A0909446973616296
:103220006C6564200D0A0000454E5F41434B5F50C2
:1032300041593A0D0A0909456E61626C6564200DB9
:103240000A000000454E5F41434B5F5041593A0D23
:103250000A090944697361626C6564200D0A000003
:1032600030B504468078801CC5B22046FFF7A2FA2C
:1032700034F81510884201D1012030BD002030BD46
:10328000014800F036BA00BF0000C07F401058BFB0
:10329000C0F14040491058BFC1F140418142EFF3B5
:1032A000008070474FF47F0C1CEAD0121EBF1CEA4E
:1032B000D11392EA0C0F93EA0C0F00F0858090EA8C
:1032C000010F48BF42F4807240F4000C41F400004A
:1032D0002CF07F4120F07F4000B58142A2EB030239
:1032E0000FF2081CACEB504EC0F100009EF800E05D
:1032F0004FEA4E0E00FB0EFC38BF49004FEA2C1C73
:1033000002F5FA020CFB0EF34FEACE1E4FEA112C27
:103310004FEAC1210EEB635E42EB22420EFB0CFC36
:103320004FEA1C5300FB03114FEA112C4FEA013105
:103330000EFB0CFC4FEADC4C00FB0C11C14228BF19
:1033400009184CEB03335DF804EB10EB410143EB40
:10335000C250B2F57C0F38BF704729D512F0F00F7C
:103360001CBF00F1C04000F0004070470081828324
:103370008485868788898B8C8D8E8F919293959684
:1033800097999A9C9D9FA0A2A3A5A7A8AAACAEB00E
:10339000B2B3B5B7B9BCBEC0C2C5C7C9CCCED1D413
:1033A000D7D9DCDFE2E6E9ECF0F3F7FAFE00000043
:1033B0004FEA400C0CF1807CBCF17E4F28BF704777
:1033C000B0F1C04000F05FB990EA010F0CEAD113F0
:1033D00048BF42F48072624538BF634507D213F498
:1033E0007F0F16D080EA010000F00040704710B552
:1033F00000F003F9097EFC3E00F005B880EA010008
:1034000000F00040704780EA010000F0004000F04A
:103410003AB912F47F0F04BF0248704780EA0100F6
:1034200000F031B90000C07FC10DD1F19E0206DB72
:103430004FEA002343F0004323FA02F070470042B2
:1034400007D54FEA4001B1F1FE4F02D24FF0000024
:10345000704710B500F0D1F84992248000207047E1
:103460006FEA200070470000B0FA80F310FA03F210
:10347000C3F19D030AD0D90501EB1220530638BFD2
:10348000704700F1010008BF20F001007047000004
:1034900050EA010C00F113801CF5000F58BFBCF579
:1034A000000F01D48842704707D710F5000F58BFAE
:1034B00011F5000F15D488427047894270471CF5FA
:1034C000000F04D5BCF5000FF7D5814270474FF0CF
:1034D000807C1CEB400F38BF1CEB410F01D28142B6
:1034E000704710B500F089F8922449004FF0005061
:1034F0004FF08051FFF7CABE4FF47F0C1CEAD01288
:103500001EBF1CEAD11392EA0C0F93EA0C0F00F0D5
:10351000478090EA010F48BF42F480724FF0004CA0
:103520004CEA00204CEA012102EB0302A0FB01134C
:10353000A2F50002002918BF43F001035B0028BF79
:103540004FEA330342EB22425FEA132C4CEBC250AA
:103550002EBFBCEB436FB2F57C0F70474FEA036C94
:10356000BCF1004F08BF20F00100B2F57C0F38BF5E
:1035700070470BD582F0FF0212F5803FC8BF70473D
:1035800000F1C040D8BF00F00040704700F5000CCB
:103590005FEA4C0C48BF7047B0F1C04000F073B810
:1035A00090EA010F0CEAD11348BF42F480726245E1
:1035B00038BF634504D280EA010000F00040704744
:1035C00010B500F01AF800BF8900013E00F007B8FE
:1035D00000F009B85FEA410C5FEA1C6C08D080EA91
:1035E000010000F050B85FEA400C5FEA1C6CF6D1B5
:1035F0004FF00040A0F5800070470EF1020E2EF053
:10360000030E5EF8044B244204D44FEA4102B2F1A7
:103610007F4F11D84FEA4003B3F17F4F0CD80ED142
:103620004FEAD07CB2F17F4F0CEB4C0C0CF1020C4A
:1036300008BF4CEBD17C04E04FF0080C01E04FEAEE
:10364000D17C0CEB4C0324FA03F404F00704B4F12E
:10365000040C06D20EEB840CBDE810404CF0010CBB
:103660006047DFE80CF0070802024FF00040A0F5C9
:10367000800010BD0846420018BFD2F1807288BF9A
:1036800000F0004010BDFF2141EAD050C005704756
:1036900051EA000C00F113801CF5000F58BFBCF577
:1036A000000F01D48142704707D711F5000F58BFB2
:1036B00010F5000F15D481427047894270471CF500
:1036C000000F04D5BCF5000FF7D5884270474FF0C6
:1036D000807C1CEB410F38BF1CEB400F01D28842AD
:1036E000704780EA010081EA000180EA0100FFF7EB
:1036F000F8BE0CF00F03092B08BF082000F0518022
:103700000A2B0BD0082B18BF704708BF1CF0400FC6
:103710000AD04FF000004FF0000170471CF0400F3E
:1037200018BF4FF0004070471CF0100F08D020F079
:10373000704300F07F4242EAD3014FEA4370704782
:1037400000F0604021F07F4242EA000201F07F4039
:1037500040EA727070474FF0FF0212EAD0521CBF6D
:1037600092F0FF038B42C2BFD14200EBC1507047C1
:10377000002A0AD0002B0BD0002900F00040A4BF83
:1037800040F0FE4040F40000704700F000407047F9
:1037900043024FF00B0C18BF4CF0806C7FF470ADFF
:1037A00070471CF4801F11D01CF4E02F03D06FEA87
:1037B000CC31490070474FF04050EFF3008222F0C7
:1037C000704242EA000282F3008870474FF0000026
:1037D0007047010202030405060708090A0B0C0DD5
:1037E0000E0F101000000000000000000102030492
:1037F0000607080900000000010203041112131457
:1038000015160A0B0C0D0E0F1030313233343536CD
:103810003738394142434445464030580030313210
:1038200033343536373839616263646566403078E1
:103830000004000008000000000000000200010079
:1038400000100000454E41413A0D0A090950303A36
:103850000925640D0A090950313A0925640D0A0940
:103860000950323A0925640D0A090950333A0925ED
:10387000640D0A090950343A0925640D0A090950F2
:10388000353A0925640D0A00454E5F5258414444BB
:10389000523A0D0A090950303A0925640D0A0909FE
:1038A00050313A0925640D0A090950323A09256454
:1038B0000D0A090950333A0925640D0A09095034E3
:1038C0003A0925640D0A090950353A0925640D0A9B
:1038D0000000000044594E50445F706970653A0D15
:1038E0000A090950303A0925640D0A090950313A8C
:1038F0000925640D0A090950323A0925640D0A099F
:103900000950333A0925640D0A090950343A09254A
:10391000640D0A090950353A0925640D0A000000B2
:10392000403900080000002048000000280100087D
:103930008839000848000020E00800004401000821
:103940000000000000000000000000000000000077
:10395000AA44332211000000AA44332211000000BF
:103960000100000010000000000000000024F4002E
:103970000000000000000000000000000000000047
:0839800000000000000000003F
:04000005080000ED02
:00000001FF
